:02000000FC2FD3
:100048007808F0007908F100F2018E30FB007B0897
:10005800F300F401C4207008F8007108F900720870
:10006800FA000800703083168F008312850183160A
:100078009F01850183129F0107309900831695011E
:100088000516D130831290009A148E018F01080052
:10009800FD01F91F5628F809F909F80A0319F90AA0
:1000A800FD01FD0A7808F0007908F100F2018E30B0
:1000B800FB007B08F3007D08FC007C08F400C420EA
:1000C8007008F8007108F9007208FA000800F601D3
:1000D800F11F7528F009F109F00A0319F10AF60170
:1000E800F60AF31F8028F209F309F20A0319F30A42
:1000F8000130F4007408F606F701F801700871047D
:100108000319B728F501F50AF11B962801300310E9
:10011800F00DF10DFF3E031D8B280130F40074082B
:10012800F507882801300310F70DF80DFF3E031D71
:10013800972871087302031DA32870087202031C14
:10014800AC287008F2027108031CF303F302771459
:1001580001300310F10CF00CFF3E031DAD280130F7
:10016800F502031D962876080319BF28F709F80930
:10017800F70A0319F80A7808F1007708F000080070
:1001880073080319CC28720871047004031DDF2852
:100198000030F0000030F1000030F20008000130BB
:1001A800F5007508F30701300310F20CF10CF00CA0
:1001B800FF3E031DD828FE3072050319FA28D328FC
:1001C8000130F5007508F3070130F0070030031817
:1001D8000130F107003003180130F2070130031035
:1001E800F20CF10CF00CFF3E031DF328FF307205F2
:1001F80003190929E4280130F30201300310F00D36
:10020800F10DF20DFF3E031D0229F11B0F290230EB
:1002180073020318FF2873181729FF30F0057F3081
:10022800F105FF30F2050310F30C7308F500F60131
:10023800F70110300310F50DF60DF70DFF3E031D05
:100248001E297508F0047608F1047708F20474088A
:1002580003190800F217080083124D08D1004E0850
:10026800D2004F08D3000310520D530DD400540888
:10027800DA005A08031D49290030D0000030CF00A9
:100288000030CE000030CD0008004D08D1004E08E7
:10029800D2004F08D30017300310D30CD20CD10C66
:1002A800FF3E031D50295108D4005408D500CE172D
:1002B800FF30CD05FF30CE050030CF054D08D60004
:1002C8004E08D7004F08D800D9018E30DA02DA1F5D
:1002D8008B295A08803A8F3E03187B290030D000BA
:1002E8000030CF000030CE000030CD0008000130D3
:1002F8000310D90CD80CD70CD60CFF3E031D7C2953
:100308000130D1005108DA070319A6297B291830D2
:100318005A02031CA3290030D0000030CF0000305F
:10032800CE000030CD0008000130D1000310D60DFA
:10033800D70DD80DD90DD10B9A290130DA025A08F8
:10034800031D982955080319B429D609D709D809CE
:10035800D909D60A0319D70A0319D80A0319D90AD9
:100368005908D0005808CF005708CE005608CD00CD
:10037800080083123308B6003408B7003508B800FF
:100388000310370D380DB9003908BE003E08031DAB
:10039800D4290030B0000030B1000030B2000800AD
:1003A8003008B6003108B7003208B8000310370D1E
:1003B800380DB9003908BF003F08031DEA2900308D
:1003C800B0000030B1000030B20008000030BB00BF
:1003D8000030BC000030BD0089303F07B600360849
:1003E800BE023308B6003408B7003508B80010302C
:1003F8000310B80CB70CB60CFF3E031DFC293608D9
:10040800B9003908BF003008B6003108B700320813
:10041800B80010300310B80CB70CB60CFF3E031D23
:100428000E2A3608B9003908BF068030B6003608EB
:10043800BF05B417FF30B305FF30B4050030B5056C
:10044800B117FF30B005FF30B1050030B2051830E4
:10045800B6003608BA0001300310BB0DBC0DBD0D47
:10046800FF3E031D302A32083502031D412A310898
:100478003402031D412A30083302031C4E2A300877
:10048800B3023108031C310FB4023208031C320ACC
:10049800B5023B1401300310B30DB40DB50DFF3E8A
:1004A800031D4F2A0130BA02031D2F2A3B08F00012
:1004B8003C08F1003D08F2003E08B6003608F3009B
:1004C8003F08B7003708F400C42070088312B00052
:1004D8007108B1007208B200080083122008A60053
:1004E8002108A7002208A8000310270D280DA9003D
:1004F8002908AA002A08031D882A0030A000003015
:10050800A1000030A20008002308A6002408A700C4
:100518002508A8000310270D280DA9002908AF00F9
:100528002F08031D9E2A0030A0000030A1000030D3
:10053800A20008002F087B3EA6002608AA0720086C
:10054800A6002108A7002208A80010300310A80C54
:10055800A70CA60CFF3E031DAA2A2608A9002908F5
:10056800AF002308A6002408A7002508A80010301B
:100578000310A80CA70CA60CFF3E031DBC2A2608D6
:10058800A9002908AF068030A6002608AF05A117E4
:10059800A417FF30A305FF30A4050030A5050030DF
:1005A800AB000030AC000030AD000730A6002608D4
:1005B800AE00201CED2A2308AB07240803110318FA
:1005C800240A031DAC07250803110318250A031D77
:1005D800AD0701300310A20CA10CA00CFF3E031DB7
:1005E800EE2A01300310A30DA40DA50DFF3E031D37
:1005F800F62A0130AE02031DDD2A0930A6002608BE
:10060800AE00201C152B2308AB0724080311031880
:10061800240A031DAC07250803110318250A031D26
:10062800AD0701300310A20CA10CA00CFF3E031D66
:10063800162B01300310AD0CAC0CAB0CFF3E031DA8
:100648001E2B0130AE02031D052B2B08F0002C08D1
:10065800F1002D08F2002A08A6002608F3002F084A
:10066800A7002708F400C42070088312A0007108AE
:10067800A1007208A20008008312E601E701023017
:10068800F0000030F1005C08F3005B08F2006B201A
:1006980071088312DC007008DB000130E8000030CC
:1006A800E9006908803AFF0080307F02031D5E2B55
:1006B800113068020318080000308312B30080303C
:1006C800B4003F30B5005C08F9005B08F8004C2026
:1006D80078088312B0007908B1007A08B200BD2109
:1006E80083123008DF003108E0003208E1005F08BB
:1006F800B3006008B4006108B5006908F90068082B
:10070800F8004C2078088312A3007908A4007A081E
:10071800A5003830A0008630A1003530A200712233
:1007280083122008B0002108B1002208B200BD21C0
:1007380083123008C3003108C4003208C5000030F5
:10074800C0008030C100BF30C2004424831240087A
:10075800CD004108CE004208CF00302183124E0858
:10076800E5004D08E4006408013EF8006508031838
:10077800013E003EF9004C2078088312A300790856
:10078800A4007A08A500CD30A000CC30A1003F30ED
:10079800A200712283122008CD002108CE00220871
:1007A800CF00302183124E08E7004D08E6006508A7
:1007B800803AFF0081307F02031DE42B0030640281
:1007C8000318352C83126708803AFF0084307F02B3
:1007D800031DF02B003066020318352C83126408C1
:1007E80083169200012C04308312FF2B0530FF2B57
:1007F8000630FF2B04309200122C83126908003A4D
:100808000319072CFE2B6808013A0319F72B053A40
:100818000319FA2B143A0319FC2BFE2B6708DE0088
:100828006608DD005E0DDE0CDD0C5E0DDE0CDD0CF9
:100838005D0893000B306605DD0000306705DE00BB
:10084800DD0EDE0EF030DE055D080F39DE04F03017
:10085800DD055D08E2005E08E30062080C389500DB
:10086800080083126908DE006808DD000310DD0D4A
:10087800DE0D0310DD0DDE0D5D08E8005E08542B6B
:1008880083124008C6004108C7004208C800031088
:10089800470D480DC9004908CC004308C600440864
:1008A800C7004508C8000310470D480DC90049088E
:1008B800CB004C0803196C2C4B084C020318732C02
:1008C8004C03FF3A4B07C60019304602031C732C31
:1008D8004308C0004408C1004508C20008004B088E
:1008E800031908004C084B020318822C4B03FF3AEB
:1008F8004C07C60019304602031808000630C60027
:100908004608CA00C21BCA17C51B4A17C117FF30C1
:10091800C005FF30C1050030C205C417FF30C3054C
:10092800FF30C4050030C5054B084C020318C22C23
:1009380001300310C30DC40DC50DFF3E031D9D2CD2
:100948000130CB024B084C060319BD2C0130CA02FA
:100958004A0807390319BD2C9C2C01300310C20C1E
:10096800C10CC00CFF3E031DB22C0130C600460866
:10097800CC074C084B060319EB2CB12C4C084B0246
:100988000318EB2C01300310C00DC10DC20DFF3E42
:10099800031DC72C0130CC024B084C060319E72C69
:1009A8000130CA024A0807390319E72CC62C01305E
:1009B8000310C50CC40CC30CFF3E031DDC2C013016
:1009C800C6004608CB074C084B06031DDB2CCA1F84
:1009D800FD2CFF30C006FF30C106FF30C2060130D3
:1009E800C007003003180130C10700300318013078
:1009F800C2074A1F0F2DFF30C306FF30C406FF3061
:100A0800C5060130C307003003180130C4070030A1
:100A180003180130C507CA014008C307410803117C
:100A28000318410A031DC407420803110318420AA8
:100A3800031DC507C51F322DFF30C306FF30C4068E
:100A4800FF30C5060130C307003003180130C40762
:100A5800003003180130C507CA01CA0A4308F0006C
:100A68004408F1004508F2004C08C6004608F300A7
:100A78004A08C7004708F400C42070088312C00061
:100A88007108C1007208C200080089308312DB00B7
:100A98000930DC00402303308312EC000830EB00FF
:100AA8007630EA00EA0B562DEB0B562DEC0B562D43
:100AB8005D2D89308312DB000930DC0040230330D0
:100AC8008312EC000830EB007630EA00EA0B6A2D5E
:100AD800EB0B6A2DEC0B6A2D712D46308312DB006F
:100AE8000E30DC00402303308312EC000830EB00AA
:100AF8007630EA00EA0B7E2DEB0B7E2DEC0B7E2D7B
:100B0800852D46308312DB000E30DC004023033095
:100B18008312EC000830EB007630EA00EA0B922DE5
:100B2800EB0B922DEC0B922D992DDA308312DB0012
:100B38000F30DC00402303308312EC000830EB0058
:100B48007630EA00EA0BA62DEB0BA62DEC0BA62DB2
:100B5800AD2DDA308312DB000F30DC004023033088
:100B68008312EC000830EB007630EA00EA0BBA2D6D
:100B7800EB0BBA2DEC0BBA2DC12D46308312DB00DE
:100B88000E30DC00402305308312EC000F30EB0000
:100B9800F030EA00EA0BCE2DEB0BCE2DEC0BCE2D70
:100BA800D52DB7308312DB000C30DC004023033036
:100BB8008312EC000830EB007630EA00EA0BE22DF5
:100BC800EB0BE22DEC0BE22DE92DB7308312DB00A5
:100BD8000C30DC00402303308312EC000830EB00BB
:100BE8007630EA00EA0BF62DEB0BF62DEC0BF62D22
:100BF800FD2DE8308312DB000B30DC00402303308E
:100C08008312EC000830EB007630EA00EA0B0A2E7B
:100C1800EB0B0A2EEC0B0A2E112EE8308312DB00A8
:100C28000B30DC00402303308312EC000830EB006B
:100C38007630EA00EA0B1E2EEB0B1E2EEC0B1E2E56
:100C4800252EB5308312DB000A30DC004023033048
:100C58008312EC000830EB007630EA00EA0B322E03
:100C6800EB0B322EEC0B322E392EB5308312DB0013
:100C78000A30DC00402303308312EC000830EB001C
:100C88007630EA00EA0B462EEB0B462EEC0B462E8E
:100C98004D2E89308312DB000930DC0040230330FD
:100CA8008312EC000830EB007630EA00EA0B5A2E8B
:100CB800EB0B5A2EEC0B5A2E612E08008312ED0115
:100CC800EE01EF013620492583128516023083167E
:100CD800A000A00B6D2E702EDF308316A000200818
:100CE80083128505051E762E051A782E0F088316A1
:100CF800A000A10120088312ED00831621088312A9
:100D0800EE000E088316A000A10183126D08831659
:100D1800A300A20120082204A40021082304A5009E
:100D280024088312ED00831625088312EE008E0135
:100D38008F016E08F9006D08F800242078088312E6
:100D4800B3007908B4007A08B5004830B0006B30B9
:100D5800B1004230B200BD2183123008CD00310805
:100D6800CE003208CF00302183124D088316A00030
:100D780020088312EF0006306F02031CF52F403065
:100D88006F020318F52F0330F0000030F1006F08F0
:100D9800FB3EF200FF3003180030F3006B207008B0
:100DA8007104031DEB2E89308312DB000930DC004F
:100DB800402303308316A2000830A1007630A0003B
:100DC800A00BE42EA10BE42EA20BE42EEB2E033095
:100DD800F0000030F10083126F08FB3EF200FF3094
:100DE80003180030F3006B2070037104031D102FEB
:100DF800B5308312DB000A30DC0040230330831651
:100E0800A2000830A1007630A000A00B092FA10B8A
:100E1800092FA20B092F102F0330F0000030F1002A
:100E280083126F08FB3EF200FF3003180030F30016
:100E38006B20023070067104031D362FE8308312D0
:100E4800DB000B30DC00402303308316A20008309F
:100E5800A1007630A000A00B2F2FA10B2F2FA20BE3
:100E68002F2F362F0330F0000030F10083126F0867
:100E7800FB3EF200FF3003180030F3006B20033014
:100E880070067104031D5C2FB7308312DB000C3031
:100E9800DC00402303308316A2000830A10076301E
:100EA800A000A00B552FA10B552FA20B552F5C2F7F
:100EB8000330F0000030F10083126F08FB3EF200AF
:100EC800FF3003180030F3006B2004307006710403
:100ED800031D822F46308312DB000E30DC004023D6
:100EE80003308316A2000830A1007630A000A00BC2
:100EF8007B2FA10B7B2FA20B7B2F822F0330F000BF
:100F08000030F10083126F08FB3EF200FF30031837
:100F18000030F3006B20053070067104031DA82F04
:100F2800DA308312DB000F30DC00402303308316F5
:100F3800A2000830A1007630A000A00BA12FA10BC1
:100F4800A12FA20BA12FA82F0330F0000030F10031
:100F580083126F08FB3EF200FF3003180030F300E5
:100F68006B20063070067104031DCE2FD230831219
:100F7800DB001130DC00402303308316A200083068
:100F8800A1007630A000A00BC72FA10BC72FA20B82
:100F9800C72FCE2F0330F0000030F10083126F0806
:100FA800FB3EF200FF3003180030F3006B200730DF
:100FB80070067104031D682E12308312DB00133093
:100FC800DC00402303308316A2000830A1007630ED
:100FD800A000A00BED2FA10BED2FA20BED2FF42FEE
:100FE800682E20308312DB004E30DC004023682E50
:080FF8008316A6018301622E9D
:02400E00D4F0EC
:00000001FF
