:02000000FC2FD3
:100424007808F0007908F100F2018E30FB007B08B7
:10043400F300F4017A227008F8007108F9007208D8
:10044400FA000800703083168F008312850183162A
:100454009F01850183129F0107309900831695013E
:100464000516D130831290009A148E018F01080072
:10047400FD01F91F442AF809F909F80A0319F90AD0
:10048400FD01FD0A7808F0007908F100F2018E30D0
:10049400FB007B08F3007D08FC007C08F4007A2252
:1004A4007008F8007108F9007208FA000800F401F5
:1004B400F501701C632A7208F4070318F50A73081F
:1004C400F50701300310F20DF30DFF3E031D642AFE
:1004D40001300310F10CF00CFF3E031D6B2A700871
:1004E4007104031D5B2A7508F1007408F00008000C
:1004F40073080319822A720871047004031D952A73
:100504000030F0000030F1000030F200080001304B
:10051400F5007508F30701300310F20CF10CF00C30
:10052400FF3E031D8E2AFE3072050319B02A892A64
:100534000130F5007508F3070130F00700300318A7
:100544000130F107003003180130F20701300310C5
:10055400F20CF10CF00CFF3E031DA92AFF307205CA
:100564000319BF2A9A2A0130F30201300310F00D57
:10057400F10DF20DFF3E031DB82AF11BC52A02300E
:1005840073020318B52A7318CD2AFF30F0057F30A3
:10059400F105FF30F2050310F30C7308F500F601C2
:1005A400F70110300310F50DF60DF70DFF3E031D96
:1005B400D42A7508F0047608F1047708F204740864
:1005C40003190800F217080024228312E501E6014A
:1005D4006911E91069108312691C6919002B051A45
:1005E400002B851602308312DF00DF0BF72AFA2A6C
:1005F400DF308312DF005F0885056914691D051E5D
:10060400062B6915E701E8016919051A242B0F085F
:10061400DF00E0015F08E7006008E8000E08DF0083
:10062400E0016708E200E1015F086104E30060089B
:100634006204E4006308E7006408E8008E018F01A7
:100644006911E914E91CED2AE91069106808F90038
:100654006708F800122278088312B3007908B400FE
:100664007A08B5004830B0006B30B1004230B200B7
:10067400EF2383123008CD003108CE003208CF00BA
:10068400622383124E08E6004D08E5006608F10077
:100694006508F0000A30F2000030F30059227108B6
:1006A4008312DC007008DB00772682308312E000BE
:1006B400DD30DF00DF0B5C2BE00B5C2B0000ED2A50
:1006C40083124D08D1004E08D2004F08D300031006
:1006D400520D530DD4005408DA005A08031D7B2B25
:1006E4000030D0000030CF000030CE000030CD000C
:1006F40008004D08D1004E08D2004F08D30017302F
:100704000310D30CD20CD10CFF3E031D822B5108D5
:10071400D4005408D500CE17FF30CD05FF30CE05E8
:100724000030CF054D08D6004E08D7004F08D8003A
:10073400D9018E30DA02DA1FBD2B5A08803A8F3E77
:100744000318AD2B0030D0000030CF000030CE00B5
:100754000030CD00080001300310D90CD80CD70CA0
:10076400D60CFF3E031DAE2B0130D1005108DA0731
:100774000319D82BAD2B18305A02031CD52B00308B
:10078400D0000030CF000030CE000030CD00080093
:100794000130D1000310D60DD70DD80DD90DD10BD2
:1007A400CC2B0130DA025A08031DCA2B5508031951
:1007B400E62BD609D709D809D909D60A0319D70AC5
:1007C4000319D80A0319D90A5908D0005808CF00C8
:1007D4005708CE005608CD00080083123308B6002F
:1007E4003408B7003508B8000310370D380DB900C8
:1007F4003908BE003E08031D062C0030B00000304E
:10080400B1000030B20008003008B6003108B7006B
:100814003208B8000310370D380DB9003908BF008D
:100824003F08031D1C2C0030B0000030B100003024
:10083400B20008000030BB000030BC000030BD0036
:1008440089303F07B6003608BE023308B6003408C4
:10085400B7003508B80010300310B80CB70CB60C4C
:10086400FF3E031D2E2C3608B9003908BF0030089E
:10087400B6003108B7003208B80010300310B80CC5
:10088400B70CB60CFF3E031D402C3608B9003908DE
:10089400BF068030B6003608BF05B417FF30B30575
:1008A400FF30B4050030B505B117FF30B005FF3097
:1008B400B1050030B2051830B6003608BA00013070
:1008C4000310BB0DBC0DBD0DFF3E031D622C320891
:1008D4003502031D732C31083402031D732C3008B8
:1008E4003302031C802C3008B3023108031C310F7F
:1008F400B4023208031C320AB5023B14013003105F
:10090400B30DB40DB50DFF3E031D812C0130BA02A9
:10091400031D612C3B08F0003C08F1003D08F20087
:100924003E08B6003608F3003F08B7003708F40065
:100934007A2270088312B0007108B1007208B20004
:10094400080083122008A6002108A7002208A80096
:100954000310270D280DA9002908AA002A08031D41
:10096400BA2C0030A0000030A1000030A200080022
:100974002308A6002408A7002508A8000310270DB3
:10098400280DA9002908AF002F08031DD02C003022
:10099400A0000030A1000030A20008002F087B3E18
:1009A400A6002608AA072008A6002108A7002208F6
:1009B400A80010300310A80CA70CA60CFF3E031DC2
:1009C400DC2C2608A9002908AF002308A600240867
:1009D400A7002508A80010300310A80CA70CA60C2B
:1009E400FF3E031DEE2C2608A9002908AF0680301F
:1009F400A6002608AF05A117A417FF30A305FF30F2
:100A0400A4050030A5050030AB000030AC00003078
:100A1400AD000730A6002608AE00201C1F2D2308B9
:100A2400AB07240803110318240A031DAC07250887
:100A340003110318250A031DAD0701300310A20C8E
:100A4400A10CA00CFF3E031D202D01300310A30DAB
:100A5400A40DA50DFF3E031D282D0130AE02031D7C
:100A64000F2D0930A6002608AE00201C472D2308B0
:100A7400AB07240803110318240A031DAC07250837
:100A840003110318250A031DAD0701300310A20C3E
:100A9400A10CA00CFF3E031D482D01300310AD0C2A
:100AA400AC0CAB0CFF3E031D502D0130AE02031DF8
:100AB400372D2B08F0002C08F1002D08F2002A082D
:100AC400A6002608F3002F08A7002708F4007A22BE
:100AD40070088312A0007108A1007208A200080027
:100AE40083124008C6004108C7004208C80003102A
:100AF400470D480DC9004908CC004308C600440806
:100B0400C7004508C8000310470D480DC90049082F
:100B1400CB004C0803199A2D4B084C020318A12D45
:100B24004C03FF3A4B07C60019304602031CA12DA3
:100B34004308C0004408C1004508C20008004B082F
:100B4400031908004C084B020318B02D4B03FF3A5D
:100B54004C07C60019304602031808000630C600C8
:100B64004608CA00C21BCA17C51B4A17C117FF3063
:100B7400C005FF30C1050030C205C417FF30C305EE
:100B8400FF30C4050030C5054B084C020318F02D96
:100B940001300310C30DC40DC50DFF3E031DCB2D45
:100BA4000130CB024B084C060319EB2D0130CA026D
:100BB4004A0807390319EB2DCA2D01300310C20C62
:100BC400C10CC00CFF3E031DE02D0130C6004608D9
:100BD400CC074C084B060319192EDF2D4C084B0289
:100BE4000318192E01300310C00DC10DC20DFF3EB4
:100BF400031DF52D0130CC024B084C060319152EAC
:100C04000130CA024A0807390319152EF42D0130A0
:100C14000310C50CC40CC30CFF3E031D0A2E013087
:100C2400C6004608CB074C084B06031D092ECA1FF5
:100C34002B2EFF30C006FF30C106FF30C206013044
:100C4400C007003003180130C10700300318013019
:100C5400C2074A1F3D2EFF30C306FF30C406FF30D3
:100C6400C5060130C307003003180130C407003043
:100C740003180130C507CA014008C307410803111E
:100C84000318410A031DC407420803110318420A4A
:100C9400031DC507C51F602EFF30C306FF30C40601
:100CA400FF30C5060130C307003003180130C40704
:100CB400003003180130C507CA01CA0A4308F0000E
:100CC4004408F1004508F2004C08C6004608F30049
:100CD4004A08C7004708F4007A2270088312C0004B
:100CE4007108C1007208C200080000308316A60013
:100CF4000030A7000030A8000030A3000030A4009A
:100D04003F30A50083125C08F9005B08F8003A2222
:100D140078088312B0007908B1007A08B200003074
:100D2400B3008030B4003F30B500EF2383123008A5
:100D34008316A000831231088316A100831232089F
:100D44008316A2003830A6008630A7003430A800ED
:100D54000130B2000030B3003308803AFF00803025
:100D64007F02031DB72E113032020318A92F8316F8
:100D74003308F9003208F8003A2278088312A300F5
:100D84007908A4007A08A500831626088312A00017
:100D9400831627088312A100831628088312A20051
:100DA400A324831220088316AB0083122108831620
:100DB400AC00831222088316AD0020088312B3000E
:100DC400831621088312B400831622088312B50007
:100DD40083162B088312A30083162C088312A40005
:100DE40083162D088312A5000030A0008030A100D6
:100DF4004030A200A32483122008B0002108B100CF
:100E04002208B200EF2383123008C3003108C40063
:100E14003208C5000030C0008030C100BF30C200BD
:100E2400722583124008CD004108CE004208CF004D
:100E3400622383124E088316B10083124D08831671
:100E4400B0003008013EF80031080318013E003EAE
:100E5400F9003A2278088312A3007908A4007A08DA
:100E6400A500831623088312A00083162408831286
:100E7400A100831625088312A200A324831220084C
:100E84008316AB00831221088316AC008312220858
:100E94008316AD002B088312A30083162C0883123B
:100EA400A40083162D088312A5000030A000803012
:100EB400A1004030A200A32483122008CD00210801
:100EC400CE002208CF00622383124E088316AF009F
:100ED40083124D088316AE003108803AFF0081303A
:100EE4007F02031D772F003030020318852F8316ED
:100EF4002F08803AFF0084307F02031D832F0030C7
:100F04002E02031CA92F8316B001B101AE01AF015B
:100F140033088312DE00831632088312DD000310C7
:100F2400DD0DDE0D0310DD0DDE0D5D088316B20050
:100F340083125E088316B3003308803AFF008030C2
:100F44007F02031DA72F11303202031CB92E831612
:100F5400300831040319080030089200BA2FB62F64
:100F64000530B72F0630B72F043083129200CB2FF1
:100F740083163308003A0319C02FB62F3208013AFA
:100F84000319B12F053A0319B22F143A0319B42FD8
:100F9400B62F8316A901AA012F088312DE00831637
:100FA4002E088312DD005E0DDE0CDD0C5E0DDE0C02
:100FB400DD0C5D0893000B3083162E058312DD00D3
:100FC400003083162F058312DE00DD0EDE0EF030B6
:100FD400DE055D080F39DE04F030DD055D0883169B
:100FE400A90083125E088316AA0029080C3883120C
:0C0FF400950008008312E9018301E62A41
:02400E00D4F0EC
:00000001FF
